:020000020000FC
:020000001FC01F
:02000800FBC13A
:0200100005C227
:1000400000E10EBF0FEF0DBF41E0D79AA09AA19A31
:10005000A29AA39AD098D198D298D398D498D598A8
:10006000D698A498A598A698A798B998BB98899867
:100070008B98C19AC39A0CEC00936A000AE009BFFE
:100080007894DF9800E1041B8FEF9FEF0197F1F761
:100090000A95D1F7DF9A00E1041B8FEF9FEF0197DC
:0800A000F1F70A95D1F7EDCF4D
:100400000F930FB70F93413029F04A9505B3007F42
:10041000042B05BB0F910FBF0F9118950F930FB7CA
:100420000F934F3029F0439505B3007F042B05BB94
:080430000F910FBF0F91189509
:00000001FF
